:03000000020006F5
:03005F0002000399
:030003000200B444
:20006200AE82AF83C3EE9401EF94005001227C667D02EC24FFFAED34FFFB8A048B05EA4B08
:2000820070F01EBEFF011FEE4F70E322C2B39000C8120062D2B39000FA020062C2B3900197
:2000A20090120062D2B39000FA02006290025802006275B20875B100C2B39003E8120062C0
:2000C200D2B39003E81200627F03C00712008ED007DFF71200AE7F03C00712009ED007DFA5
:1700E200F71200AE7F03C00712008ED007DFF71200AE1200AE80D1E9
:06003500E4787FF6D8FD1F
:200013007900E94400601B7A009000FD780175A000E493F2A308B8000205A0D9F4DAF27596
:02003300A0FF2C
:20003B007800E84400600A790175A000E4F309D8FC7800E84400600C7900900001E4F0A3C3
:04005B00D8FCD9FAFA
:0D0006007581071200F9E582600302000316
:0400F90075820022EA
:00000001FF
